:040000001BEF0FF0F3
:08000800046ED8CF05F0E0CF33
:1000100006F00001E9CF0CF0EACF07F0E1CF08F0DD
:10002000E2CF09F0D9CF0AF0DACF0BF0F3CF12F01C
:10003000F4CF13F0FACF14F0F5CF15F0F6CF16F099
:10004000F7CF17F000C00EF001C00FF002C010F0A3
:1000500003C011F09DAA30EF00F09EBA57EF00F0F8
:100060000EC000F00FC001F010C002F011C003F08C
:100070000CC0E9FF07C0EAFF078E08C0E1FF09C016
:10008000E2FF0AC0D9FF0BC0DAFF12C0F3FF13C0B2
:10009000F4FF14C0FAFF15C0F5FF16C0F6FF17C035
:1000A000F7FF045006C0E0FF05C0D8FF10009EAA6D
:1000B00012D09EAAFED7AECF1FF01F502B0801E131
:1000C0005C6A5C505C2A036A200FE96E000E032014
:1000D000EA6E1FC0EFFF9E9A30EF00F041542B43B1
:1000E0004D47463D310D0A0041542B434D47533D8A
:1000F000222B3532343534353435343534343534D7
:1001000035343534220D0A00436F6F7264656E61B9
:100110006461733A0A0D00004C6174697475643A45
:1001200020000A0D4C6F6E67697475643A200000F8
:1001300041542B434D47443D310A0D004154453055
:100140000A0D000041542B43504D533D22534D2284
:100150002C22534D220A0D0041542B434E4D493D54
:10016000322C322C302C302C300A0D0041542B43D1
:100170004D47463D310A0D00010EEA6E170EE96E3D
:10018000EF500EE0010E016E006A002EFED7012E28
:10019000FBD74A0E006E002EFED700D0EF2EF2D70E
:1001A0001200080E016E00008A9293920000010175
:1001B0001E378A90D8B09380D8A09390938281A262
:1001C000FED7012E01D002D00001EDD700008A92A7
:1001D00093920000938000000000938281A2FED7DA
:1001E000016A000081B001808A9293928A90939074
:1001F0000001120093800000938200008A90939087
:1002000000008A929392D00E01011E6F0001C9DF97
:1002100014C11EF1C6DF15C11EF1C3DF93900000AB
:10022000938281A2FED7000000D0000093800000DE
:1002300012006B0E0101146F800E156F0001DADFE2
:10024000640E0101176F000197DF6B0E0101146F3F
:10025000156B0001CFDF640E0101176F00018CDF09
:100260001A0E0101146F010E156F0001C3DF0A0E93
:100270000101176F000180DF1B0E0101146F156B68
:100280000001B8DF58EF0FF00101156B15513B0865
:100290000FE3036A1551200FE96E000E0320EA6E8A
:1002A000EF6A320E176F000167DF0101152BEED7E1
:1002B0001F6A5C6A000112006E6B6E5163080AE3EC
:1002C000036A6E51700FE96E000E0320EA6EEF6A4A
:1002D0006E2BF3D76E6B6E5101080AE3036A6E5101
:1002E000D40FE96E000E0320EA6EEF6A6E2BF3D78F
:1002F0006E6B6E5102080AE3036A6E51F20FE96EEB
:10030000000E0320EA6EEF6A6E2BF3D76E6B6E5110
:1003100001080AE3036A6E51F50FE96E000E03202F
:10032000EA6EEF6A6E2BF3D76E6B6E5104080AE328
:10033000036A6E51FB0FE96E000E0320EA6EEF6A4E
:100340006E2BF3D76E6B6E5101080AE3036A6E5190
:10035000D60FE96E000E0320EA6EEF6A6E2BF3D71C
:100360006E6B6E5103080AE3036A6E51D80FE96E93
:10037000000E0320EA6EEF6A6E2BF3D76E6B6E51A0
:1003800004080AE3036A6E51DC0FE96E000E0320D5
:10039000EA6EEF6A6E2BF3D76E6B6E5103080AE3B9
:1003A000036A6E51F70FE96E000E0320EA6EEF6AE2
:1003B0006E2BF3D76E6B6E510C080AE3036A6E5115
:1003C000E10FE96E000E0320EA6EEF6A6E2BF3D7A1
:1003D0006E6B6E510D080AE3036A6E51040FE96EED
:1003E000010E0320EA6EEF6A6E2BF3D712000900AC
:1003F000F5520DE0F6CF16F1F7CF17F1F5509EA8A4
:10040000FED7AD6E16C1F6FF17C1F7FFF0D7120089
:10041000080E01011F6F00C020F19380000093823D
:1004200081A2FED781B0D88081A0D890013600008B
:1004300093928A921F2FF1D7938000008A902051C7
:10044000D8A493900000938281A2FED700008A92E4
:10045000939200008A909390000152EF02F09380F3
:100460000000938200008A90939000008A929392F9
:10047000D00E01011E6F000194DE1CC11EF191DE41
:10048000938000009382000081A2FED78A9093900F
:1004900000008A929392D10E01011E6F000181DE4D
:1004A000006AB6D701C01DF193900000938281A22B
:1004B000FED7000000D0000093800000036A010115
:1004C0001DC101F003C002F0000112008E0E006E8B
:1004D0001DC101F01CC102F0036A01AE05D0011E6E
:1004E000021E022A01E1012A015209E102C001F0C3
:1004F000026A080E005E015202E1006A0ED0D89036
:1005000001BE04D0023601360006F9D701011DAF45
:1005100002D0000102D0019E00011200010127510A
:10052000D8B4A5D0336F2B51D8B4A1D0335F05E335
:100530007F0E3327D8B09BD006D0810E335FD8A072
:1005400096D0D8B494D033C100F0016A026A036A2D
:10055000326B28C131F1318F29C130F12AC12FF11D
:10056000190E336F2E512F5F0DE2010E305F0AE23C
:10057000315F08E2325F06E2322B312B302B2E51F5
:100580002F2728D02D51305F12E2010E315F0FE28C
:10059000325F0DE2322B312B2D5130272E512F2778
:1005A00019E3302B17E1312B15E1322B13D02C51ED
:1005B0008009315F0EE2010E325F0BE2322B2C51CB
:1005C000800931272D513027E9E3312BE7E1322B28
:1005D000E5D70380332F01D00BD0D8902F37303799
:1005E00031373237D8900336023601363437BAD72E
:1005F00034A106D0D890013202320332343302D013
:10060000000635E034BF1ED0D8902F373037313751
:1006100032372E512F5F07E2010E305F04E2315F67
:1006200002E2325F1AE32D51305F05E2010E315FC5
:1006300002E2325F12E32C518009315F03E2010EC6
:10064000325F0BE3032A09E1022A07E1012A05E1EF
:10065000002A0DE001320232033228C133F12C515D
:10066000331B33AF02D0018E06D0019E04D0006A46
:10067000016A026A036A000112003B0E01011C6F4D
:100680000001EDDE01C014F13C0E01011C6F000100
:10069000E6DE01C015F114C117F115C116F117C13D
:1006A0001DF116C11CF112DF03C01FF102C01EF1C3
:1006B00001C01DF100C01CF103C02AF102C029F1E4
:1006C00001C028F100C027F101012E6B2D6B2C6BAE
:1006D0008D0E2B6F000122DF03C01BF102C01AF147
:1006E00001C019F100C018F118C100F019C101F0E2
:1006F0001AC102F01BC103F0B6EF0FF0800ED8A2B2
:1007000002D001012C1B0101316B326B28C130F189
:100710002C51301B2751D8B4DFD02F6F006E2B51D6
:10072000D8B4E3D02F5FD8B483D03EE32CC135F1E9
:10073000358F2DC134F12EC133F1326BD890353362
:100740003433333332332F2FF8D730AF03D03181E6
:10075000E0D031912F913189010EEA6E2A0EE96EB7
:10076000EBD0319930BF0AD02FA113D035333433B9
:1007700033333233002AD8B4C7D00BD035BF0CD0B6
:10078000D89032373337343735370006D8B4BCD039
:10079000F5D7318D6DD0319D28C130F128AF02D011
:1007A000358FABD0359FA9D02BC12FF12BC100F0D5
:1007B00027512F5F28C135F1358F29C134F12AC166
:1007C00033F1326BD89035333433333332332F2F08
:1007D000F8D730AF03D031839CD031932F91318B38
:1007E000010EEA6E2E0EE96EA7D0319B30BF0AD003
:1007F0002FA113D03533343333333233002AD8B4F6
:1008000083D00BD035BF0CD0D89032373337343744
:1008100035370006D8B478D0F5D7318F29D0319F3D
:100820002CC130F12CAF02D0358F67D0359F65D009
:100830002CC135F1358F2DC134F12EC133F130AFDC
:1008400004D0359F318565D03195326B2F91010EE3
:10085000EA6E2A0EE96E70D030BF1CD028C130F18C
:100860002FA106D03533343333333233002A4CE0F2
:1008700032AF0BD0332B09E1342B07E1352B05E1E7
:10088000353334333333002A3FE031BD84D731BFB1
:10089000C6D71CD0800E351B35AF04D03AD02CC142
:1008A00030F10AD028C130F1355306E1345304E168
:1008B000335302E1006A21D035BF08D0D8903237D7
:1008C000333734373537002EF7D71ED030AF02D04C
:1008D000358F13D0359F11D02BC100F02CC135F1CD
:1008E0002DC134F12EC133F108D027C100F028C149
:1008F00035F129C134F12AC133F135C101F034C1D8
:1009000002F033C103F034D0006A016A026A036A5C
:100910002FD0326B331F341F351F321F322B05E1AE
:10092000332B03E1342B01E1352B31B112D731B335
:1009300054D731B589D7B3D7EF50332705E3342BDC
:1009400003E1352BD8B42F81ED52EF50342703E368
:10095000352BD8B42F81ED52EF50EFBE01D0800A75
:100960003527D8B02F8131B9FCD631BB3ED774D7EB
:10097000000112003D0E01011C6F000170DD01C07D
:1009800014F13E0E01011C6F000169DD01C015F17B
:1009900014C117F115C116F117C11DF116C11CF1D3
:1009A00095DD03C01FF102C01EF101C01DF100C0A2
:1009B0001CF103C02AF102C029F101C028F100C0D6
:1009C00027F101012E6B2D6B2C6B8D0E2B6F00010F
:1009D000A5DD03C01BF102C01AF101C019F100C06E
:1009E00018F118C100F019C101F01AC102F01BC1C1
:1009F00003F0DBEF0FF03F0E01011C6F00012FDD54
:100A000001C014F1400E01011C6F000128DD01C07E
:100A100015F114C117F115C116F117C11DF116C159
:100A20001CF154DD03C01FF102C01EF101C01DF115
:100A300000C01CF103C02AF102C029F101C028F155
:100A400000C027F101012E6B2D6B2C6B8D0E2B6FCF
:100A5000000164DD03C01BF102C01AF101C019F1ED
:100A600000C018F118C100F019C101F01AC102F05C
:100A70001BC103F000EF10F015C11CF10101195169
:100A80001C1B1CAF05D0D894D89015BFD8802FD090
:100A900015C11CF118C11DF114511D5F06E01CAFFA
:100AA00026D0D850010AD86E22D019C11DF1155197
:100AB0001D5F06E01CAF1BD0D850010AD86E17D0BE
:100AC0001AC11DF116511D5F06E01CAF10D0D850A1
:100AD000010AD86E0CD01BC11DF117511D5F06E035
:100AE0001CAF05D0D850010AD86E01D0D8900001B3
:100AF0001200938681B6FED7080E006E0101186BB6
:100B0000008E0ED0009E0CD0D89081B6D8801833BD
:100B1000008C06D0009C002EF7D718C101F00CD035
:100B20001C0E00BE070E016E012EFED7000000BE97
:100B3000E9D700BCEFD7E8D700011200010123512B
:100B4000D8B471D0006E2751D8B46DD0002604E31C
:100B5000810E002668E204D07F0E005E64E363E04D
:100B600024C12BF128512B1B248F288F26512A03B7
:100B7000F4CF2DF125512903F4CF03F0F3CF2CF15D
:100B80002A03F3502D27F4502C23000E0322265164
:100B90002903F3502D27F4502C23000E026A032260
:100BA000022224512A03F3502C27F4500322000E72
:100BB000022224512903F3500326F4500222000E8E
:100BC000016A012226512803F3502C27F4500322F6
:100BD000000E0222012225512803F3500326F4506F
:100BE0000222000E012224512803F3500226F45061
:100BF0000122002A01BE05D02C3703360236013609
:100C00000006000E2CAF0AD0032A02220122015056
:100C100005E1025003E1035001E1002A2BBF018EE0
:100C20002BAF019E04D0006A016A026A036A0001C8
:100C300012008E0E006E28C101F027C102F0036A77
:100C4000015209E102C001F0026A080E005E015281
:100C500002E1006A08D0D89001BE04D00236013605
:100C60000006F9D7019E120001011B6B1A6B196B6C
:100C70007F0E186F1F6B1E6B1D6B1C6B20812093EA
:100C80002095226B1451151105E1006A016A026A70
:100C9000036A0ED12251222B1425E96E000E152174
:100CA000EA6EEFCF21F12153D8B4C5D020A10FD0E7
:100CB000215120080CE0209121512B0803E12093C1
:100CC000AED005D021512D0802E12083A8D020B15B
:100CD00007D021512E0804E120B502D020859FD0F5
:100CE00020B19AD021512F08D8B096D0215139087F
:100CF000D8A092D0300E215F20A554D01BC126F180
:100D00001AC125F119C124F118C123F12A6B296BED
:100D1000200E286F820E276F000110DF03C01BF129
:100D200002C01AF101C019F100C018F10101286BCD
:100D300021C127F100017DDF03C026F102C025F1AA
:100D400001C024F100C023F103C02AF102C029F13F
:100D500001C028F100C027F11BC12EF11AC12DF1ED
:100D600019C12CF118C12BF18EEC02F0D8921FC1E1
:100D70002AF11EC129F11DC128F11CC127F103C0B0
:100D80002EF102C02DF101C02CF100C02BF1B6DC18
:100D900003C01FF102C01EF101C01DF100C01CF113
:100DA00039D00101266B256B200E246F820E236F34
:100DB0001FC12AF11EC129F11DC128F11CC127F153
:100DC0000001BCDE03C026F102C025F101C024F100
:100DD00000C023F10101286B21C127F1000129DFA7
:100DE000D89226C12AF125C129F124C128F123C1B5
:100DF00027F103C02EF102C02DF101C02CF100C07B
:100E00002BF17CDC03C01FF102C01EF101C01DF1FB
:100E100000C01CF105D0010120B101D00CD00001AF
:100E200001012251222B1425E96E000E1521EA6ED4
:100E3000EFCF21F138D720A319D0266B256B800E78
:100E4000246F7F0E236F1FC12AF11EC129F11DC11E
:100E500028F11CC127F1000171DE03C01FF102C09F
:100E60001EF101C01DF100C01CF101011651171146
:100E700017E022530CE0220716C1E9FF17C1EAFF71
:100E800022511425EF6E000E1521EC6E09D016C10B
:100E9000E9FF17C1EAFF15C1ECFFED5214C1EFFFE6
:100EA0001CC100F01DC101F01EC102F01FC103F002
:100EB000000112006E6B6E51010820E31ADE01C0C2
:100EC0006FF0036A6E51D40F016E000E032203C04F
:100ED00015F1120E00016E25036A700FE96E000E07
:100EE0000320EA6EEFCF16F1010115C1EAFF01C040
:100EF000E9FF16C1EFFF00016E2BDDD76E6B6E515F
:100F0000010820E3F6DD01C06FF0036A6E51D60FD1
:100F1000016E000E032203C015F1140E00016E25B0
:100F2000036A700FE96E000E0320EA6EEFCF16F130
:100F3000010115C1EAFF01C0E9FF16C1EFFF000181
:100F40006E2BDDD76E6B6E51030820E3D2DD01C03E
:100F50006FF0036A6E51D80F016E000E032203C0BA
:100F600015F1170E00016E25036A700FE96E000E71
:100F70000320EA6EEFCF16F1010115C1EAFF01C0AF
:100F8000E9FF16C1EFFF00016E2BDDD7B2DD01C016
:100F90006FF00101156BD80E146F176B166B000103
:100FA00063DE03C0F1F002C0F0F001C0EFF000C05A
:100FB000EEF09FDD01C06FF0F1C026F1F0C025F129
:100FC000EFC024F1EEC023F101012A6B296B700EF2
:100FD000286F840E276F0001B1DD03C017F102C036
:100FE00016F101C015F100C014F103C02AF102C0CE
:100FF00029F101C028F100C027F101012E6B400E3C
:101000002D6F1C0E2C6F8C0E2B6F00018EEC02F0DE
:1010100003C0F1F002C0F0F001C0EFF000C0EEF04C
:1010200068DD01C06FF06E6B6E51020820E361DD78
:1010300001C06FF0036A6E51F20F016E000E0322C1
:1010400003C015F11F0E00016E25036A700FE96ED3
:10105000000E0320EA6EEFCF16F1010115C1EAFF81
:1010600001C0E9FF16C1EFFF00016E2BDDD76E6BEB
:101070006E51010820E33DDD01C06FF0036A6E513F
:10108000F50F016E000E032203C015F1220E0001C0
:101090006E25036A700FE96E000E0320EA6EEFCF33
:1010A00016F1010115C1EAFF01C0E9FF16C1EFFF0A
:1010B00000016E2BDDD76E6B6E51030820E319DD46
:1010C00001C06FF0036A6E51F70F016E000E03222C
:1010D00003C015F1250E00016E25036A700FE96E3D
:1010E000000E0320EA6EEFCF16F1010115C1EAFFF1
:1010F00001C0E9FF16C1EFFF00016E2BDDD7F9DC5F
:1011000001C06FF00101156BF70E146F176B166BB2
:101110000001AADD03C003F102C002F101C001F128
:1011200000C000F1E6DC01C06FF003C126F102C18E
:1011300025F101C124F100C123F101012A6B296BC2
:10114000700E286F840E276F0001F8DC03C017F1C2
:1011500002C016F101C015F100C014F103C02AF15C
:1011600002C029F101C028F100C027F101012E6B56
:10117000400E2D6F1C0E2C6F8C0E2B6F00018EEC11
:1011800002F003C003F102C002F101C001F100C08E
:1011900000F1AFDC01C06FF03BEF0EF08E0E006E81
:1011A00001011E51005E1FC102F020C101F0028E3C
:1011B000005209E0D890025202E1015204E00232EA
:1011C0000132002EF7D71FAF05D0011E021E012AE3
:1011D000D8B4022A00011200016A026A006A036A96
:1011E0000101215102E1205118E0100E226FD89028
:1011F0001E371F37003603362151035C02E12051B0
:10120000005C07E32051005ED8A003062151035E75
:10121000D88001360236222FEAD7000112000101E0
:10122000156B146B176B166B196B186B1B6B1A6BAA
:101230001D6B1C6BF1C026F1F0C025F1EFC024F14D
:10124000EEC023F12A6B296B480E286F850E276F9D
:10125000000174DC03C021F102C020F101C01FF1C4
:1012600000C01EF19BDF02C01DF101C01CF11DC1B9
:101270001FF11CC11EF10101216B0A0E206F00013C
:10128000ABDF00C014F1010103C015F11DC11FF156
:101290001CC11EF1216B0A0E206F00019DDF02C0F0
:1012A00017F101C016F117C11FF116C11EF101019E
:1012B000216B0A0E206F00018FDF00C016F10101C3
:1012C00003C017F11DC11FF11CC11EF1030E216FD8
:1012D000E80E206F000180DF00C018F1010103C09B
:1012E00019F119C11FF118C11EF1216B640E206F95
:1012F000000172DF02C019F101C018F11DC11FF118
:101300001CC11EF1030E0101216FE80E206F0001C8
:1013100063DF02C01BF101C01AF101011451006E1C
:101320001551036E035004E10052000141E0010138
:10133000035005E1010E005C00013DE00101035096
:1013400005E1020E005C000139E00101035005E1F6
:10135000030E005C000135E00101035005E1040EBD
:10136000005C000131E00101035005E1050E005C65
:1013700000012DE00101035005E1060E005C0001B3
:1013800029E00101035005E1070E005C000125E0A2
:101390000101035005E1080E005C000121E001019C
:1013A000035005E1090E005C00011DE001011FD0A2
:1013B000300EE06F1FD0310EE06F1CD0320EE06FA8
:1013C00019D0330EE06F16D0340EE06F13D0350E07
:1013D000E06F10D0360EE06F0DD0370EE06F0AD000
:1013E000380EE06F07D0390EE06F04D00101570EC0
:1013F0000001E06F01011651006E1751036E03509A
:1014000004E10052000141E00101035005E1010E39
:10141000005C00013DE00101035005E1020E005CAB
:10142000000139E00101035005E1030E005C0001F9
:1014300035E00101035005E1040E005C000131E0DC
:101440000101035005E1050E005C00012DE00101E2
:10145000035005E1060E005C000129E00101035084
:1014600005E1070E005C000125E00101035005E1E4
:10147000080E005C000121E00101035005E1090EA6
:10148000005C00011DE001011FD0300EDF6F1FD096
:10149000310EDF6F1CD0320EDF6F19D0330EDF6FCD
:1014A00016D0340EDF6F13D0350EDF6F10D0360E2E
:1014B000DF6F0DD0370EDF6F0AD0380EDF6F07D029
:1014C000390EDF6F04D00101580E0001DF6F2E0EC0
:1014D000DE6F01011851006E1951036E035004E1D3
:1014E0000052000141E00101035005E1010E005CE2
:1014F00000013DE00101035005E1020E005C000126
:1015000039E00101035005E1030E005C000135E004
:101510000101035005E1040E005C000131E001010E
:10152000035005E1050E005C00012DE001010350B0
:1015300005E1060E005C000129E00101035005E110
:10154000070E005C000125E00101035005E1080ED3
:10155000005C000121E00101035005E1090E005C7F
:1015600000011DE001011FD0300EDD6F1FD0310ED4
:10157000DD6F1CD0320EDD6F19D0330EDD6F16D04B
:10158000340EDD6F13D0350EDD6F10D0360EDD6FEB
:101590000DD0370EDD6F0AD0380EDD6F07D0390E53
:1015A000DD6F04D00101590E0001DD6F01011A51F8
:1015B000006E1B51036E035004E10052000141E034
:1015C0000101035005E1010E005C00013DE0010155
:1015D000035005E1020E005C000139E001010350F7
:1015E00005E1030E005C000135E00101035005E157
:1015F000040E005C000131E00101035005E1050E1D
:10160000005C00012DE00101035005E1060E005CC5
:10161000000129E00101035005E1070E005C000113
:1016200025E00101035005E1080E005C000121E006
:101630000101035005E1090E005C00011DE00101FC
:101640001FD0300EDC6F1FD0310EDC6F1CD0320E7D
:10165000DC6F19D0330EDC6F16D0340EDC6F13D074
:10166000350EDC6F10D0360EDC6F0DD0370EDC6F10
:101670000AD0380EDC6F07D0390EDC6F04D00101C0
:101680005A0E0001DC6F3DEF0EF06E6B6E510108DB
:101690001DE3036A6E51E10F016E000E032201018A
:1016A00003C015F1036A00016E51D40FE96E000EFC
:1016B0000320EA6EEFCF16F1010115C1EAFF01C068
:1016C000E9FF16C1EFFF00016E2BE0D7470EE36F75
:1016D000D6C0E4F0D7C0E5F0270EE66FDCC0E7F037
:1016E000DDC0E8F0DEC0E9F0DFC0EAF0E0C0EBF01A
:1016F000220EEC6F8DC0EDF03EEF0EF00101156B88
:10170000146B176B166B196B186B1B6B1A6B1D6BBD
:101710001C6B03C126F102C125F101C124F100C1F6
:1017200023F12A6B296B480E286F850E276F000165
:101730009EEC05F003C021F102C020F101C01FF1B1
:1017400000C01EF12BDD02C01DF101C01CF11DC146
:101750001FF11CC11EF10101216B0A0E206F000157
:101760003BDD00C014F1010103C015F11DC11FF1E3
:101770001CC11EF1216B0A0E206F00012DDD02C07D
:1017800017F101C016F117C11FF116C11EF10101B9
:10179000216B0A0E206F00011FDD00C016F1010150
:1017A00003C017F11DC11FF11CC11EF1030E216FF3
:1017B000E80E206F000110DD00C018F1010103C028
:1017C00019F119C11FF118C11EF1216B640E206FB0
:1017D000000102DD02C019F101C018F11DC11FF1A5
:1017E0001CC11EF1030E0101216FE80E206F0001E4
:1017F000F3DC02C01BF101C01AF101011451006EAB
:101800001551036E035004E10052000141E0010153
:10181000035005E1010E005C00013DE001010350B1
:1018200005E1020E005C000139E00101035005E111
:10183000030E005C000135E00101035005E1040ED8
:10184000005C000131E00101035005E1050E005C80
:1018500000012DE00101035005E1060E005C0001CE
:1018600029E00101035005E1070E005C000125E0BD
:101870000101035005E1080E005C000121E00101B7
:10188000035005E1090E005C00011DE001011FD0BD
:10189000300EFF6F1FD0310EFF6F1CD0320EFF6F66
:1018A00019D0330EFF6F16D0340EFF6F13D0350EE4
:1018B000FF6F10D0360EFF6F0DD0370EFF6F0AD0BE
:1018C000380EFF6F07D0390EFF6F04D00101570E9D
:1018D0000001FF6F01011651006E1751036E035096
:1018E00004E10052000141E00101035005E1010E55
:1018F000005C00013DE00101035005E1020E005CC7
:10190000000139E00101035005E1030E005C000114
:1019100035E00101035005E1040E005C000131E0F7
:101920000101035005E1050E005C00012DE00101FD
:10193000035005E1060E005C000129E0010103509F
:1019400005E1070E005C000125E00101035005E1FF
:10195000080E005C000121E00101035005E1090EC1
:10196000005C00011DE001011FD0300EFE6F1FD092
:10197000310EFE6F1CD0320EFE6F19D0330EFE6F8B
:1019800016D0340EFE6F13D0350EFE6F10D0360E0B
:10199000FE6F0DD0370EFE6F0AD0380EFE6F07D0E7
:1019A000390EFE6F04D00101580E0001FE6F2E0E9D
:1019B000FD6F01011851006E1951036E035004E1CF
:1019C0000052000141E00101035005E1010E005CFD
:1019D00000013DE00101035005E1020E005C000141
:1019E00039E00101035005E1030E005C000135E020
:1019F0000101035005E1040E005C000131E001012A
:101A0000035005E1050E005C00012DE001010350CB
:101A100005E1060E005C000129E00101035005E12B
:101A2000070E005C000125E00101035005E1080EEE
:101A3000005C000121E00101035005E1090E005C9A
:101A400000011DE001011FD0300EFC6F1FD0310ED0
:101A5000FC6F1CD0320EFC6F19D0330EFC6F16D009
:101A6000340EFC6F13D0350EFC6F10D0360EFC6FA9
:101A70000DD0370EFC6F0AD0380EFC6F07D0390E30
:101A8000FC6F04D00101590E0001FC6F01011A51D5
:101A9000006E1B51036E035004E10052000141E04F
:101AA0000101035005E1010E005C00013DE0010170
:101AB000035005E1020E005C000139E00101035012
:101AC00005E1030E005C000135E00101035005E172
:101AD000040E005C000131E00101035005E1050E38
:101AE000005C00012DE00101035005E1060E005CE1
:101AF000000129E00101035005E1070E005C00012F
:101B000025E00101035005E1080E005C000121E021
:101B10000101035005E1090E005C00011DE0010117
:101B20001FD0300EFB6F1FD0310EFB6F1CD0320E5A
:101B3000FB6F19D0330EFB6F16D0340EFB6F13D032
:101B4000350EFB6F10D0360EFB6F0DD0370EFB6FCE
:101B50000AD0380EFB6F07D0390EFB6F04D001019D
:101B60005A0E0001FB6F43EF0EF06E6B6E510208D0
:101B70001DE3036A6E51040F016E010E0322010181
:101B800003C015F1036A00016E51F20FE96E000EF9
:101B90000320EA6EEFCF16F1010115C1EAFF01C083
:101BA000E9FF16C1EFFF00016E2BE0D7470E0101E0
:101BB000076FF5C008F1F6C009F1270E0A6FFBC0E8
:101BC0000BF1FCC00CF1FDC00DF1FEC00EF1FFC029
:101BD0000FF1220E106F12C111F100014AEF0EF049
:101BE00079EC05F001C06FF06F51240857E16E6B7E
:101BF0006E51040815E3036A6E51700FE96E000E12
:101C00000320EA6EEACF17F1E9CF16F179EC05F07F
:101C100017C1EAFF16C1E9FF01C0EFFF6E2BE8D73D
:101C2000705147083BE17151500838E17251520838
:101C300035E173514D0832E1745143082FE1050E2F
:101C40006E6F6E512B0815E3036A6E51700FE96ECB
:101C5000000E0320EA6EEACF17F1E9CF16F179EC16
:101C600005F017C1EAFF16C1E9FF01C0EFFF6E2BB7
:101C7000E8D75AEF07F00FEF09F007D579EC05F038
:101C800001C06FF03BD59BC012F179EC05F001C0AB
:101C90006FF06BD779EC05F001C06FF0EFEF10F04B
:101CA000300EF66E010EF76EF7EC01F0040E010136
:101CB000156FFA0E176F0001BCEC00F00101152F33
:101CC000F8D7146B14513B081CE3036A1451200F1E
:101CD000E96E000E0320EA6EEF50530810E1010E8A
:101CE0001425036A200FE96E000E0320EA6EEF5000
:101CF000540805E15D6A000144EC01F00101142B78
:101D0000E1D70001F6EF10F09EA8FED7AD6E01EF0F
:101D10000FF0818E080E0101166FFA0E176F000189
:101D2000BCEC00F00101162FF8D7819EDC0EF66E98
:101D3000000EF76E0001F7EC01F0020E0101166FC4
:101D4000FA0E176F0001BCEC00F00101162FF8D756
:101D5000E80EF66E000EF76E0001F7EC01F0020ED1
:101D60000101166FFA0E176F0001BCEC00F00101C3
:101D7000162FF8D7080EF66E010EF76E0001F7EC7D
:101D800001F0180EF66E010EF76EF7EC01F001018E
:101D9000146B14510C080FE3036A1451E10FE96E40
:101DA000000E0320EA6EEFCF16F116519EA8FED763
:101DB000AD6E142BEED7220EF66E010EF76E0001FB
:101DC000F7EC01F00101156B15510D080FE3036AE3
:101DD0001551040FE96E010E0320EA6EEFCF16F1E4
:101DE00016519EA8FED7AD6E152BEED70A0E9EA8F3
:101DF000FED7AD6E0D0E9EA8FED7AD6E1A0E000179
:101E000083D7040E0101166FFA0E176F0001BCECA8
:101E100000F00101162FF8D7818E080E166FFA0E0A
:101E2000176F0001BCEC00F00101162FF8D7819E5E
:101E3000000100EF11F0F86AD09E078EB896190ED7
:101E4000AF6EA60EAC6E900EAB6E93988A88939C84
:101E50008A8C1F6A5C6A5D6A616B606B5F6A5E6A2E
:101E6000656B646B636B626B696B686B676B666BEE
:101E70006D6B6C6B6B6B6A6BC150C00B0F09C16EE5
:101E8000070EB46E196A1A6A140E0101146FFA0E65
:101E9000176F0001BCEC00F00101142FF8D7939EDE
:101EA000819ED09EC00EF26E9D8A000119EF01F056
:101EB00044EC01F05CEC01F03C0EF66E010EF76EA6
:101EC000F7EC01F0040E0101146FFA0E176F000118
:101ED000BCEC00F00101142FF8D7440EF66E010E91
:101EE000F76E0001F7EC01F0040E0101146FFA0E19
:101EF000176F0001BCEC00F00101142FF8D7580E49
:101F0000F66E010EF76E0001F7EC01F0040E010110
:101F1000146FFA0E176F0001BCEC00F00101142FD2
:101F2000F8D76C0EF66E010EF76E0001F7EC01F0BB
:101F3000040E0101146FFA0E176F0001BCEC00F0E3
:101F40000101142FF8D7818E080E146FFA0E176F47
:101F50000001BCEC00F00101142FF8D7819E136B37
:101F60001351090873E300013DEF03F0EACF15F1C7
:101F7000E9CF14F1D89265C02AF164C029F163C099
:101F800028F162C027F103C02EF102C02DF101C07B
:101F90002CF100C02BF17EEC03F015C1EAFF14C157
:101FA000E9FF03C065F002C064F001C063F000C047
:101FB00062F0BAEF04F0EACF15F1E9CF14F1D8924C
:101FC00061C02AF160C029F15FC028F15EC027F12D
:101FD00003C02EF102C02DF101C02CF100C02BF185
:101FE0007EEC03F015C1EAFF14C1E9FF03C061F004
:101FF00002C060F001C05FF000C05EF0FBEF04F0D3
:10200000EACF15F1E9CF14F1D89269C02AF168C07E
:1020100029F167C028F166C027F103C02EF102C084
:102020002DF101C02CF100C02BF17EEC03F015C1A5
:10203000EAFF14C1E9FF03C069F002C068F001C003
:1020400067F000C066F00101132B8AD765C02AF142
:1020500064C029F163C028F162C027F12E6B2D6B9B
:10206000200E2C6F820E2B6F00018EEC02F003C04D
:1020700065F002C064F001C063F000C062F061C0AE
:102080002AF160C029F15FC028F15EC027F101018B
:102090002E6B2D6B200E2C6F820E2B6F00018EECA1
:1020A00002F003C061F002C060F001C05FF000C048
:1020B0005EF069C02AF168C029F167C028F166C0E6
:1020C00027F101012E6B2D6B200E2C6F820E2B6FD2
:1020D00000018EEC02F003C069F002C068F001C09C
:1020E00067F000C066F0D89265C02AF164C029F19B
:1020F00063C028F162C027F161C02EF160C02DF1EC
:102100005FC02CF15EC02BF17EEC03F003C017F131
:1021100002C016F101C015F100C014F1D89203C03D
:102120002AF102C029F101C028F100C027F169C0DD
:102130002EF168C02DF167C02CF166C02BF17EEC4A
:1021400003F003C017F102C016F101C015F100C081
:1021500014F103C02AF102C029F101C028F100C026
:1021600027F101012E6B2D6B400E2C6F800E2B6F13
:1021700000018EEC02F003C06DF002C06CF001C0F3
:102180006BF000C06AF00101176B166B156B7E0EC9
:10219000146F6DC01BF16CC01AF16BC019F16AC0ED
:1021A00018F100013CEC05F015E26DC017F16CC0B0
:1021B00016F16BC015F16AC014F19A0E01011B6F84
:1021C000990E1A6F190E196F7D0E186F00013CECF5
:1021D00005F002E3010E5D6E5D2C27D001D5C80E1F
:1021E0000101176F0001BCEC00F05AD5C80E0101C7
:1021F000176F0001BCEC00F05D52D8B416D089D541
:10220000200E0101146FFA0E176F0001BCEC00F0F4
:102210000101142FF8D700015CEC01F0C80E010198
:10222000176F0001BCEC00F0D7D7010198D603006E
:020000040030CA
:0E00000020C03E1E0087A1000FC00FE00F4081
:00000001FF
;PIC18F4550
;CRC=AFD4  CREATED="03-dic.-23 19:36"
